:100000000C942A001895000018950000189500001F
:10001000189500001895000018950000189500002C
:100020001895000018950000189500000C943303F3
:10003000189500001895000018950000189500000C
:1000400018950000189500001895000018950000FC
:10005000189500008FE58DBFC8E3E0E24E2E84E0E6
:100060008EBFD4E0F4E05F2EA89584B7082E877F7A
:1000700084BF88E1992781BD91BDEEEFF3E0A0E652
:10008000B0E088278D933197E9F785E089B980E062
:1000900080BD88E18AB9662486E886B980E487B99C
:1000A0008FEF87BB70E078BBA098A098A89AA19822
:1000B000A198A99A7894579A74B7777F74BF8FE103
:1000C00097E081BD91BD81B5886081BDA895009103
:1000D000FF01073018F011F00C9470000C947300BD
:1000E00081E08093FF01AFEFB1E08C918F5F8C9343
:1000F0000091FF01013011F00C94C30007B1007EA4
:1001000007B90E94F102A9EFB1E08D939C93EEE54F
:10011000FAE00E942205E9EFF1E0D190E080FF24AF
:1001200000270E949F040E94CC04EDE0F0E0ABEFBA
:10013000B1E00E944404E2E6FAE00E94E301E8E64E
:10014000FAE00E94E301A8E0B4E0AF93BF93EBEFC5
:10015000F1E00E9475040E94090211E002E0BF91E3
:10016000AF910E947203E8E0F4E0A8E0B4E00E94DE
:100170003F040E94DB01EAE6FAE00E94E3010E94EC
:10018000EA010C945701023011F00C94E90007B118
:10019000007E016007B90E94F102A7EFB1E08D93E4
:1001A0009C93ECE6FAE00E94E301E8E6FAE00E94A4
:1001B000E301E5EFF1E0A8E0B4E00E94C8030E948B
:1001C000DB01EAE6FAE00E94E3010E94EA010C94F6
:1001D0005701033011F00C940F0107B1007E02604B
:1001E00007B90E94F102A5EFB1E08D939C93E4E77B
:1001F000FAE00E94E301E8E6FAE00E94E301E7EF9B
:10020000F1E0A8E0B4E00E94C8030E94DB01EAE646
:10021000FAE00E94E3010E94EA010C9457010430C5
:1002200011F00C942B01ECE7FAE00E94E301E8E600
:10023000FAE00E94E301D201E8E3F0E00E941D042D
:10024000D2010E94DD01EAE6FAE00E94E3010E9489
:10025000EA010C945701053011F00C945701E4E8C1
:10026000FAE00E94E301E8E6FAE00E94E301A3E37A
:10027000B0E08C9180FBA8E0B4E00E942F038D9346
:1002800088278C930E94DB01A3E3B0E08C9181FB73
:10029000A8E0B4E00E942F038D9388278C930E94DE
:1002A000DB01EAE6FAE00E94E3010E94EA0184EF42
:1002B00091E00E94FA01EAE8FAE00E94E3010E945C
:1002C000EA0184EF91E00E94FA010C9466008EE14D
:1002D00090E00E94FA01ABE2B1E0E9EC0E94A401D7
:1002E000ABE2B1E08C91803011F40C9479010E9462
:1002F0007A010895A895EBE2F1E0ABE2B1E00E944B
:100300005504ABE2B1E0E4E9FAE02FEF0E94FC0211
:10031000003018F011F00C948F010C949D0186E0D0
:10032000EBE2F1E008E00A93ABE2B1E00E9457048F
:10033000ABE2B1E00E942D0408BBABE2B1E088273C
:100340008C930895A8E0B4E012D08D3039F0EE23FC
:10035000D9F38D93EA9563FE40D0F6CF63FC04C0D9
:100360008DE03BD08AE039D088278C9308950F9296
:100370009F93AF93BF937F9380912A018823E1F3EA
:10038000F89480912A018A9580932A0190912801FE
:10039000A0E6B0E0A90F0024B01D8C919395983C85
:1003A00009F499279093280178947F91BF91AF9198
:1003B0009F910F900895A8E0B4E08D91882311F0EB
:1003C0000CD0FBCF08950E942B03802D11F005D097
:1003D000FACF08958DE001D08AE05D9BFECF8CB905
:1003E00008953197F1F70895689462F80895E894B4
:1003F00062F80895EF93FF93EE27E82BE92B31F095
:10040000EDECFAE03197F1F70197D1F7FF91EF9119
:1004100008958DE207FD8D938F2D881F802F881FF3
:100420008F57082F6894F7F8802F87FF15C08095A5
:100430008395082F80E38D938EE28D93802F8152D8
:1004400028F080E38D9399279C93089544270A957B
:10045000802F09F196D01FC0805230F09EE49D930A
:1004600081E48D939D93EFCF4427DF92EF92FF922B
:100470000F938FE1801B11F0082F83D089D09EE26B
:100480009D930F91FF90EF90DF90442703950032EA
:1004900009F4D7CF2BD03F93E2E2F5E038E12F2DDE
:1004A0001E2D0D2DFF24EE24DD244427000F111FE7
:1004B000221FA8F42F923F920E942B03102C0E941F
:1004C0002B03202C0E942B03302C0E942B033197EE
:1004D000410DD21CE31CF01C3F902F9001C03396BD
:1004E00031963A9519F73F9107D0AFCFDD0CEE1C4E
:1004F000FF1C0A95D9F70895002719E058D08F936B
:10050000802B11F0039501C08F911A95B9F7802FB8
:10051000882309F496CF8F91805D8D930A95D9F742
:1005200092CF0065CD1D80B2E60E40597307A0AC96
:10053000B90350D6DC01286BEE0094357700CA9AD7
:100540003B0065CD1D00B2E60E0059730700ACB943
:100550000300D6DC01006BEE0000357700009A3B0B
:100560000000CD1D0000E60E000073070000B90377
:100570000000DC010000EE000000770000003B00FE
:100580000000F694E794D79447950A95D1F708951B
:1005900000270DD08F9303958F2D8E298D29842BC5
:1005A000C1F78F91805D8D930A95D9F74CCF1F933A
:1005B0000F93002710E2440FDD1CEE1CFF1C001FF0
:1005C000802F9AE0890B10F0082F43951A9599F720
:1005D000802F0F911F9108950191119121913081E8
:1005E0000895369A3699FECF369A3699FECF84B161
:1005F00095B10895899101C0882700271C900115A5
:1006000039F0803031F01D90011511F00197D9F7C4
:1006100008951197AD011196BF01E894203019F0AB
:10062000C895802D01C08081882389F09C919923F1
:1006300089F0981731F40EF01D01689411963196E7
:10064000EDCFFB010EF4D101E8941196E7CF16F43B
:100650008101041B0895C89531960020089580E318
:100660000EF4839508957F930F93AF93BF938F9369
:100670009F938FB78F93E89480912A0108EC081B11
:1006800021F49CB10E94F40113C000912901A0E65D
:10069000B0E077279CB1A00FB71F9C936894839517
:1006A00080932A010395083C09F40027009329014F
:1006B0009D3011F40E9467018F918FBF9F918F91A0
:1006C000BF91AF910F917F91189599278D91939537
:1006D0008823E1F7939511968C9311978E919A95B3
:1006E000D1F70895EA2FFB2F00244C918D910394AC
:1006F0008E32E1F711248D9113948823E1F71A9437
:10070000101640F41197202F2119239580E38D9323
:100710002A95E9F7113039F59927AE2FBF2FA00D93
:10072000B91FA00FB91F8C919C93853308F421C089
:1007300031E08E918E32E9F38D3241F0830F8A33AE
:1007400019F480E331E001C033278C93AE1789F7A9
:10075000332341F0AE2FBF2FB8DF81E34D3209F4D0
:100760003196808308958827E00DF81FE00FF81F69
:1007700080830895000F111F221F331F08950095D5
:100780001095209530950F5F1F4F2F4F3F4F0895C5
:10079000019110810FC00E94EC020EC00E94EC0279
:1007A00010C00191108117FF05C03FEF2FEF04C06B
:1007B000008111272227332737FF03C0E0DF8DE2B6
:1007C0008D93CF92DF92EF92AA24BB24CC24DD2418
:1007D000EE2440E2EAE0FF2755E093E38081890FB1
:1007E00087FD9F7083FD907F891B81935A95A9F7A0
:1007F000C1DFAA1CBB1CCC1CDD1CEE1C4A9551F7AA
:10080000E894EFE0FF2782910BD0EB30E0F71EF089
:1008100068948A2D09D04D93EF90DF90CF90089582
:10082000982F829501D0892F8F70805D26F08033BC
:1008300009F4089568948D93089541E0E40F8827A2
:10084000F81F829138E098E1880F991F9D933A959F
:10085000D1F74A95B1F70C943C04002711272227C1
:1008600033278D91882339F08053000F111F221FE9
:10087000331F080FF6CF089588278D93089581912F
:100880008D938823E1F7089594E081918D939A9553
:10089000E1F7089581918032E9F3F2CFF0DF11970B
:1008A0008E918032E9F31196E7CFF4DFF8CF09910A
:1008B0009191992359F08A95D9F73197002331F016
:1008C00081918D930A958823C9F70895D5CFB7FEF6
:1008D000089590E8B91611F4D0FE08959FEFD91A43
:1008E000E90AF90A09F403950895D190E190F1908D
:1008F0000191089521913191419151910895502F85
:100900002D2D3E2D4F2D612F0895652F90E8440F1A
:10091000551F5927990F47956078102F90E8FF0CC5
:10092000001F0927990FF794107800380895FF0CDD
:1009300090E89027110F9795F794092F08951127A4
:10094000BD2CDE2CEF2CF02E0EE1FF2039F4FE2C16
:10095000ED2CDB2CBB240850C2F752C032F00A95B4
:10096000BB0CDD1CEE1CFF1CF9CFB1DFE0CF2DEC82
:100970003CEC4CEC5DE366270FC0B7DFC0DFDD2445
:10098000EE2490E8F92E0FE307C0B4DF05C022275C
:10099000332740E251E46627552351F1002381F1CA
:1009A000B4DF71F11627005850580894050B18F45D
:1009B00007FD03C025C007FD23C046953795279541
:1009C000F694E794D79422D0FF202AF0DD0CEE1C99
:1009D000FF1C015073F09D2D969548F0DD203AF4F0
:1009E000EE202AF491E0D90E9927E91EF91E9FCF37
:1009F00007C09FE7092FF92A9FEFD92EE92E089506
:100A0000DD24EE24FF240027112708959F929924C6
:100A1000AA24BB2488E1D216E306F40628F0D21AF1
:100A2000E30AF40A089401C08894991CAA1CBB1C10
:100A3000DD0CEE1CFF1C8A9571F7D92CEA2CFB2CDF
:100A40009F9008950E942B03202D0E942B03302D90
:100A50000E942B03402D0E942B03502D0895CDCCD6
:100A60004C4323766F6C74003A002A002374656D42
:100A7000703100002374656D7032000023706F7256
:100A8000746200002370696E6300234745543A6C1A
:0A0A900065642A006C65643A0000FA
:00000001FF
