:100000000C942A001895000018950000189500001F
:10001000189500001895000018950000189500002C
:100020001895000018950000189500000C94200504
:10003000189500001895000018950000189500000C
:1000400018950000189500001895000018950000FC
:10005000189500008FE58DBFC8E3E0E24E2E84E0E6
:100060008EBFD4E0F4E05F2EA89584B7082E877F7A
:1000700084BF88E1992781BD91BDEEEFF3E0A0E652
:10008000B0E088278D933197E9F785E089B980E062
:1000900080BD88E18AB9662486E886B980E487B99C
:1000A0008D9A8C9A83EA8FBD81E08EBD8FEF87BBDE
:1000B00070E078BBA098A098A89AA198A198A99A56
:1000C0007894579A74B7777F74BF8FE197E081BDBA
:1000D00091BD81B5886081BDE1E0F0E0A8E3B0E0CA
:1000E00091E00E949C0681E090E00E94D703E3E04B
:1000F000F0E0A8ECB0E092E00E949C0681E090E085
:100100000E94D7038E9A969AE4E3FFE00E94C4030C
:100110000E94CB03A8ECB0E08D919C919BBD8ABD61
:100120008EE190E00E94D703A4EDB0E08C918F5F48
:100130008C93A8950091D400083018F011F00C941D
:10014000A3000C94A60081E08093D4000091D40019
:10015000013011F00C94000107B1007E07B90E9434
:10016000CE04AAECB0E08D939C93E0E3FFE00E9404
:100170008B07EAECF0E0D190E080FF2400270E949A
:1001800008070E943507EDE0F0E0A0EDB0E00E9426
:100190005F06E0EDF0E00E94DE06ECECF0E00E948D
:1001A000E3060E94C50611F40C94FE00ECE3FFE0A8
:1001B0000E949403A8E0B4E0AF93BF93E0EDF0E0B9
:1001C0000E94DE060E94E60311E002E0BF91AF91BB
:1001D0000E946805E8E0F4E0A8E0B4E00E945A0656
:1001E0000E948C03E4E4FFE00E9494030E949B03BE
:1001F000E0EDF0E0ACECB0E00E945F060C9407028A
:10020000023011F00C943B0107B1007E016007B988
:100210000E94CE04A2ECB0E08D939C93A0ECB0E0E1
:100220004D915C91A2ECB0E00D911C910417150763
:1002300011F40C943901E6E4FFE00E949403EEE42B
:10024000FFE00E949403E2ECF0E0A8E0B4E00E943A
:10025000C3050E948C03E4E4FFE00E9494030E9423
:100260009B03A2ECB0E08D919C91A0ECB0E08D934B
:100270009C930C940702033011F00C94760107B1A3
:10028000007E026007B90E94CE04A6ECB0E08D9318
:100290009C93A4ECB0E04D915C91A6ECB0E00D9184
:1002A0001C910417150711F40C947401E0E5FFE0AC
:1002B0000E949403EEE4FFE00E949403E6ECF0E079
:1002C000A8E0B4E00E94C3050E948C03E4E4FFE0D0
:1002D0000E9494030E949B03A6ECB0E08D919C9138
:1002E000A4ECB0E08D939C930C940702043011F0C1
:1002F0000C94A201AAEDB0E088B38C934091D90090
:100300000091DA00041711F40C94A001E8E5FFE075
:100310000E949403EEE4FFE00E949403D201E8E31C
:10032000F0E00E944706D2010E948E03E4E4FFE061
:100330000E9494030E949B038091DA008093D9006D
:100340000C940702053011F00C94E001ACEDB0E024
:1003500085B38C934091DB000091DC00041711F40D
:100360000C94DE01E0E6FFE00E949403EEE4FFE07F
:100370000E949403A3E3B0E08C9180FBA8E0B4E07A
:100380000E941C058D9388278C930E948C03A3E305
:10039000B0E08C9181FBA8E0B4E00E941C058D9335
:1003A00088278C930E948C03E4E4FFE00E9494036E
:1003B0000E949B038091DC008093DB000C94070279
:1003C000063011F00C940702A7EDB0E08C918F5F1E
:1003D0008C930091D700073018F011F00C94F201C3
:1003E0000C94F50180E08093D700E6E6FFE00E94E0
:1003F0009403E7EDF0E0A8E0B4E00E94D3050E948A
:100400008C03E4E4FFE00E9494030E949B030C949D
:10041000900084E190E00E94D703ACE8B0E0E8E20D
:100420000E945503ACE8B0E08C91803011F40C943C
:100430001B020E941C020895A895ECE8F0E0ACE8CD
:10044000B0E00E947006ECE8F0E0ACE8B0E00E949A
:100450006506ACE8B0E0E0E7FFE02FEF0E94D904CA
:10046000003018F011F00C9437020C944602F89406
:1004700086E0ECE8F0E00CE10A93A8E0B4E00E942A
:1004800072060E94CF030E94CB037894ACE8B0E0E0
:10049000E6E7FFE02FEF0E94D904003018F011F0DA
:1004A0000C9454020C946F0287E0ECE8F0E004E056
:1004B0000A93AAEBB0E00E947206AAEBB0E00E9499
:1004C0001806802F912F90934B0080934A00E3E011
:1004D000F0E0AAE4B0E092E07BE70E948B06ACE893
:1004E000B0E0ECE7FFE02FEF0E94D904003018F0F5
:1004F00011F00C947D020C943A0387E0ECE8F0E0F4
:1005000001E00A93A5EBB0E00E94720685E0ECE8FA
:10051000F0E001E00A93ACE8B0E00E947206A5EBBF
:10052000B0E0E2E8FFE00E94A30611F00C949D0207
:100530007091D8007F777093D800A5EBB0E0E4E825
:10054000FFE00E94A30611F00C94AB027091D8005A
:1005500070687093D800ACE8B0E00E941806A6ED71
:10056000B0E00C930091D600083010F00C94CA0251
:10057000A8EDB0E08C9187FB8091D600A8E3B0E0B5
:100580000E9416050E940C050C9016F0092201C06D
:10059000082A0C920091D600093011F00C94320315
:1005A000A8EDB0E08C9187FB16F00C9401037FEF6F
:1005B00078BB80E08093D5000091D500073018F01B
:1005C00011F00C940103E6E8FFE00E949403E5EDCE
:1005D000F0E0A8E0B4E00E94D3050E948C03ECE8B0
:1005E000FFE00E9494030E949B0382E390E00E943C
:1005F000D703A5EDB0E08C918F5F8C9310F40C9431
:10060000DC02A8EDB0E08C9187FB16F40C94320369
:1006100070E078BB80E08093D5000091D500073072
:1006200018F011F00C943203E6E8FFE00E94940306
:10063000E5EDF0E0A8E0B4E00E94D3050E948C0351
:10064000E0E9FFE00E9494030E949B0382E390E0B4
:100650000E94D703A5EDB0E08C918F5F8C9310F4CE
:100660000C940D03E1E0F0E0A8E3B0E091E07BE75B
:100670000E948B06ACE8B0E088278C93A5EBB0E035
:1006800088278C93AAEBB0E088278C938EED80931B
:10069000D6007091D8007F777093D800A9E8B0E0B9
:1006A0000E9452050895A8E0B4E012D08D3039F0D0
:1006B000EE23D9F38D93EA9563FE40D0F6CF63FC29
:1006C00004C08DE03BD08AE039D088278C93089510
:1006D0000F929F93AF93BF937F9380918B0088235A
:1006E000E1F3F89480918B008A9580938B00909130
:1006F0008900A0E6B0E0A90F0024B01D8C9193956D
:10070000993209F499279093890078947F91BF9149
:10071000AF919F910F900895A8E0B4E08D91882348
:1007200011F00CD0FBCF08950E940805802D11F028
:1007300005D0FACF08958DE001D08AE05D9BFECF11
:100740008CB908953197F1F70895689462F8089587
:10075000E89462F808958F939F938BE890E0019757
:10076000F1F79F918F91089580952AE090E0089489
:1007700010F4969802C0969A0000EDDFECDF969593
:1007800087952A95A9F708950E940805802D11F0F4
:10079000EBDFFACF08958DE0E7DF8AE0E5CFA8E050
:1007A000B4E08D91882311F0DFDFFBCF0895EF9344
:1007B000FF93EE27E82BE92B31F0EDECFAE03197CF
:1007C000F1F70197D1F7FF91EF9108958DE207FDC1
:1007D0008D938F2D881F802F881F8F57082F689427
:1007E000F7F8802F87FF15C080958395082F80E349
:1007F0008D938EE28D93802F815228F080E38D932C
:1008000099279C93089544270A95802F09F196D043
:100810001FC0805230F09EE49D9381E48D939D93A0
:10082000EFCF4427DF92EF92FF920F938FE1801B6F
:1008300011F0082F83D089D09EE29D930F91FF90F5
:10084000EF90DF9044270395003209F4D7CF2BD0E7
:100850003F93ECEDF8E038E12F2D1E2D0D2DFF24F8
:10086000EE24DD244427000F111F221FA8F42F922D
:100870003F920E940805102C0E940805202C0E941F
:100880000805302C0E9408053197410DD21CE31C4D
:10089000F01C3F902F9001C0339631963A9519F78E
:1008A0003F9107D0AFCFDD0CEE1CFF1C0A95D9F7A6
:1008B0000895002719E058D08F93802B11F00395ED
:1008C00001C08F911A95B9F7802F882309F496CF2C
:1008D0008F91805D8D930A95D9F792CF0065CD1DDC
:1008E00080B2E60E40597307A0ACB90350D6DC01C4
:1008F000286BEE0094357700CA9A3B0065CD1D0049
:10090000B2E60E0059730700ACB90300D6DC010053
:100910006BEE0000357700009A3B0000CD1D000013
:10092000E60E000073070000B9030000DC010000C0
:10093000EE000000770000003B000000F694E79412
:10094000D79447950A95D1F7089500270DD08F9336
:1009500003958F2D8E298D29842BC1F78F91805D72
:100960008D930A95D9F74CCF1F930F93002710E270
:10097000440FDD1CEE1CFF1C001F802F9AE0890B2A
:1009800010F0082F43951A9599F7802F0F911F911A
:10099000089501911191219130810895369A3699E7
:1009A000FECF369A3699FECF84B195B108958991DC
:1009B00001C0882700271C90011539F0803031F0E4
:1009C0001D90011511F00197D9F708951197AD0108
:1009D0001196BF01E894203019F0C895802D01C010
:1009E0008081882389F09C91992389F0981731F4AC
:1009F0000EF01D01689411963196EDCFFB010EF4B7
:100A0000D101E8941196E7CF16F48101041B0895F3
:100A1000C89531960020089591E0882321F08894AC
:100A2000991F8A95E9F7892F90950895883018F0D5
:100A300011968850FBCF089580E30EF483950895B6
:100A40007F930F93AF93BF938F939F938FB78F93A2
:100A5000E89480918B0009E2081B21F49CB10E946C
:100A6000A50313C000918A00A0E6B0E077279CB1EF
:100A7000A00FB71F9C936894839580938B00039578
:100A8000093209F4002700938A009D3011F40E9476
:100A900009028F918FBF9F918F91BF91AF910F915D
:100AA0007F9118956FB7F894882793E08D939A9566
:100AB000E9F76FBF089599278D9193958823E1F702
:100AC000939511968C9311978E919A95D1F70895DD
:100AD000EA2FFB2F00244C918D9103948E32E1F785
:100AE00011248D9113948823E1F71A94101640F481
:100AF0001197202F2119239580E38D932A95E9F7EB
:100B0000113039F59927AE2FBF2FA00DB91FA00FB7
:100B1000B91F8C919C93853308F421C031E08E91EC
:100B20008E32E9F38D3241F0830F8A3319F480E37A
:100B300031E001C033278C93AE1789F7332341F09E
:100B4000AE2FBF2FB8DF81E34D3209F43196808399
:100B500008958827E00DF81FE00FF81F808308959F
:100B6000040F151F261F371F0895000F111F221F86
:100B7000331F089500951095209530950F5F1F4FF6
:100B80002F4F3F4F0895019110810FC00E94C9045B
:100B90000EC00E94C90410C00191108117FF05C04A
:100BA0003FEF2FEF04C0008111272227332737FFA3
:100BB00003C0E0DF8DE28D93CF92DF92EF92AA2403
:100BC000BB24CC24DD24EE2440E2EAE0FF2755E0FC
:100BD00093E38081890F87FD9F7083FD907F891B40
:100BE00081935A95A9F7C1DFAA1CBB1CCC1CDD1C44
:100BF000EE1C4A9551F7E894EFE0FF2782910BD065
:100C0000EB30E0F71EF068948A2D09D04D93EF90F9
:100C1000DF90CF900895982F829501D0892F8F7003
:100C2000805D26F0803309F4089568948D930895CB
:100C300000271127222733271DD08A3328F4803339
:100C400018F005D015D0F9CF0EF494CF0895805345
:100C50008F93402F512F622F732F87DF86DF80DF26
:100C600084DF8F919927080F191F291F391F0895B5
:100C70008D910895E894FCDF8032E9F38B32D9F34B
:100C80008930C9F38D3211F46894F2CF089541E0B0
:100C9000E40F8827F81F829138E098E1880F991FA8
:100CA0009D933A95D1F74A95B1F70C94570688274A
:100CB0008D93089581918D938823E1F7089594E0B1
:100CC00081918D939A95E1F7089581918032E9F3AE
:100CD000F2CFF0DF11978E918032E9F31196E7CFD2
:100CE000F4DFF8CF09919191992359F08A95D9F7BA
:100CF0003197002331F081918D930A958823C9F7AC
:100D00000895D5CFE199FECFEEBBFFBB3196089594
:100D100091E001C092E07B3751F47FB7F894F2DFA5
:100D20008D918DBBE29AE19A9A95C9F77FBF77279B
:100D3000089591E001C092E0E5DFE09A8DB38D93D4
:100D40009A95D1F70895689401C0E894AF93BF9342
:100D50008D9116F0919103C00E940805902D89177E
:100D600018F011F48823A1F7BF91AF910895B7FE51
:100D7000089590E8B91611F4D0FE08959FEFD91A9E
:100D8000E90AF90A09F4039508950F928F939F9346
:100D9000D216E306F4060FB680E890E88027952780
:100DA0000FBE890739F00FB6892B87FD02C081E09D
:100DB00008260FBE9F918F910F900895D190E190DA
:100DC000F1900191089521913191419151910895AE
:100DD000502F2D2D3E2D4F2D612F0895652F90E81A
:100DE000440F551F5927990F47956078102F90E8A9
:100DF000FF0C001F0927990FF79410780038089509
:100E0000FF0C90E89027110F9795F794092F0895FC
:100E10001127BD2CDE2CEF2CF02E0EE1FF2039F433
:100E2000FE2CED2CDB2CBB240850C2F752C032F054
:100E30000A95BB0CDD1CEE1CFF1CF9CF98DFE0CF40
:100E40002DEC3CEC4CEC5DE366270FC0B7DFC0DF58
:100E5000DD24EE2490E8F92E0FE307C0B4DF05C0CF
:100E60002227332740E251E46627552351F100231E
:100E700081F1B4DF71F11627005850580894050B22
:100E800018F407FD03C025C007FD23C0469537951C
:100E90002795F694E794D79422D0FF202AF0DD0C12
:100EA000EE1CFF1C015073F09D2D969548F0DD203F
:100EB0003AF4EE202AF491E0D90E9927E91EF91EA2
:100EC0009FCF07C09FE7092FF92A9FEFD92EE92E60
:100ED0000895DD24EE24FF240027112708959F9212
:100EE0009924AA24BB2488E1D216E306F40628F04C
:100EF000D21AE30AF40A089401C08894991CAA1C27
:100F0000BB1CDD0CEE1CFF1C8A9571F7D92CEA2C5A
:100F1000FB2C9F9008950E940805202D0E94080533
:100F2000302D0E940805402D0E940805502D08957F
:100F3000CDCC4C43736F6966676F000023766F6C8E
:100F4000743A00002A002374656D703100003A0085
:100F50002374656D7032000023706F72746200003C
:100F60002370696E6300234745543A706F727400B2
:100F700072616E67000070776D316100706F72741E
:100F800000003000310023706F7274003A312A0083
:040F90003A302A00C9
:00000001FF
