:100000000C942A001895000018950000189500001F
:10001000189500001895000018950000189500002C
:100020001895000018950000189500000C94C50460
:10003000189500001895000018950000189500000C
:1000400018950000189500001895000018950000FC
:10005000189500008FE58DBFC8E3E0E24E2E84E0E6
:100060008EBFD4E0F4E05F2EA89584B7082E877F7A
:1000700084BF88E1992781BD91BDEEEFF3E0A0E652
:10008000B0E088278D933197E9F785E089B980E062
:1000900080BD88E18AB9662486E886B980E487B99C
:1000A0008D9A8C9A83EA8FBD81E08EBD8FEF87BBDE
:1000B00070E078BBA098A098A89AA198A198A99A56
:1000C0007894579A74B7777F74BF8FE197E081BDBA
:1000D00091BD81B5886081BDE1E0F0E0A8E3B0E0CA
:1000E00091E00E944B0681E090E00E947603E3E0FD
:1000F000F0E0AAE1B1E092E00E944B0681E090E0DE
:100100000E9476038E9A969AECE6FEE00E946303C4
:100110000E946A03AAE1B1E08D919C919BBD8ABDCA
:1001200080E991E00E947603A7E2B1E08C918F5FB5
:100130008C93A89500912701073018F011F00C94CA
:10014000A3000C94A60081E0809327010091270171
:10015000013011F00C94E90007B1007E07B90E944C
:100160007304ACE1B1E08D939C93E8E6FEE00E945D
:100170002707ECE1F1E0D190E080FF2400270E9406
:10018000A4060E94D106EDE0F0E0A2E2B1E00E94F8
:100190000406E4E7FEE00E943303A8E0B4E0AF9376
:1001A000BF93E2E2F1E00E947A060E94850311E02B
:1001B00002E0BF91AF910E940D05E8E0F4E0A8E0F5
:1001C000B4E00E94FF050E942B030E943A030C94A6
:1001D000B501023011F00C94070107B1007E0160F7
:1001E00007B90E947304A4E1B1E08D939C93EAE700
:1001F000FEE00E943303E4E1F1E0A8E0B4E00E94F5
:1002000068050E942B030E943A030C94B501033049
:1002100011F00C94250107B1007E026007B90E941D
:100220007304A8E1B1E08D939C93E2E8FEE00E94A4
:100230003303E8E1F1E0A8E0B4E00E9468050E9421
:100240002B030E943A030C94B501043011F00C9476
:100250008101A8E3B0E08C9187FBADE2B1E08C9125
:1002600080F98C93A8E3B0E08C9186FBADE2B1E01D
:100270008C9181F98C93A8E3B0E08C9185FBADE281
:10028000B1E08C9182F98C93A8E3B0E08C9184FB6F
:10029000ADE2B1E08C9183F98C93A8E3B0E08C914E
:1002A00083FBADE2B1E08C9184F98C93A8E3B0E0DC
:1002B0008C9182FBADE2B1E08C9185F98C93A8E33F
:1002C000B0E08C9181FBADE2B1E08C9186F98C932A
:1002D000A8E3B0E08C9180FBADE2B1E08C9187F9AE
:1002E0008C93EAE8FEE00E943303D201EDE2F1E0F4
:1002F0000E94EC05D2010E942D030E943A030C9447
:10030000B501053011F00C94A701E2E9FEE00E946E
:100310003303A3E3B0E08C9180FBA8E0B4E00E943B
:10032000C1048D9388278C930E942B03A3E3B0E034
:100330008C9181FBA8E0B4E00E94C1048D938827D2
:100340008C930E942B030E943A030C94B501063053
:1003500011F00C94B501E8E9FEE00E943303A5EB2F
:10036000B0E00E942D030E943A030C94900084E1B7
:1003700090E00E947603AEEDB0E0E8E20E94F40265
:10038000AEEDB0E08C91803011F40C94C9010E9464
:10039000CA010895A895EEEDF0E0AEEDB0E00E9440
:1003A0001506EEEDF0E0AEEDB0E00E940A0681E049
:1003B00080933001AEEDB0E00E945206482F0091CC
:1003C0003001041718F011F00C9412028AE20E9416
:1003D0006D0480913001EEEDF0E001E00A93A98117
:1003E000BA810E941706A881B981E2EAFEE00E9464
:1003F00058060FB68AE2481A80E0580A22960FBEC5
:1004000011F00C940A0280913001AEEDB0E07DE372
:100410000E942706A0E3B1E08C918F5F8C9310F4CB
:100420000C94DA01EEEDF0E0A5EBB0E00E94FF05E0
:10043000AEEDB0E0E4EAFEE02FEF0E947E04003073
:1004400018F011F00C9426020C943502F89486E012
:10045000EEEDF0E004E20A93A8E0B4E00E94170693
:100460000E946E030E946A037894AEEDB0E0EAEA5F
:10047000FEE02FEF0E947E04003018F011F00C9483
:1004800043020C945E0287E0EEEDF0E004E00A9394
:10049000ACE0B1E00E941706ACE0B1E00E94BD05FF
:1004A000802F912F90934B0080934A00E3E0F0E07F
:1004B000AAE4B0E092E07BE70E943A06AEEDB0E03D
:1004C000E0EBFEE02FEF0E947E04003018F011F008
:1004D0000C946C020C94D90287E0EEEDF0E001E0A0
:1004E0000A93A7E0B1E00E94170685E0EEEDF0E088
:1004F00001E00A93AEEDB0E00E941706A7E0B1E07C
:10050000E6EBFEE00E94580611F00C948C0270910C
:100510002B017F7770932B01A7E0B1E0E8EBFEE0C1
:100520000E94580611F00C949A0270912B01706889
:1005300070932B01AEEDB0E00E94BD05A9E2B1E0E1
:100540000C9300912901083010F00C94B902ABE231
:10055000B1E08C9187FB80912901A8E3B0E00E9473
:10056000BB040E94B1040C9016F0092201C0082AB5
:100570000C9200912901093011F00C94D102ABE2E8
:10058000B1E08C9187FB16F00C94C8027FEF78BB2A
:10059000ABE2B1E08C9187FB16F40C94D10270E0D1
:1005A00078BBE1E0F0E0A8E3B0E091E07BE70E94F7
:1005B0003A06AEEDB0E088278C93A7E0B1E088273B
:1005C0008C93ACE0B1E088278C938EED8093290169
:1005D00070912B017F7770932B01A9E8B0E00E9406
:1005E000F7040895A8E0B4E012D08D3039F0EE237E
:1005F000D9F38D93EA9563FE40D0F6CF63FC04C037
:100600008DE03BD08AE039D088278C9308950F92F3
:100610009F93AF93BF937F9380918B008823E1F3E7
:10062000F89480918B008A9580938B00909189003B
:10063000A0E6B0E0A90F0024B01D8C9193959932EB
:1006400009F499279093890078947F91BF91AF9195
:100650009F910F900895A8E0B4E08D91882311F048
:100660000CD0FBCF08950E94AD04802D11F005D071
:10067000FACF08958DE001D08AE05D9BFECF8CB962
:1006800008953197F1F70895689462F80895E89411
:1006900062F808958F939F938BE890E00197F1F7AC
:1006A0009F918F91089580952AE090E0089410F42E
:1006B000969802C0969A0000EDDFECDF969587953C
:1006C0002A95A9F708950E94AD04802D11F0EBDF63
:1006D000FACF08958DE0E7DF8AE0E5CFA8E0B4E047
:1006E0008D91882311F0DFDFFBCF0895EF93FF9307
:1006F000EE27E82BE92B31F0EDECFAE03197F1F73A
:100700000197D1F7FF91EF9108958DE207FD8D9349
:100710008F2D881F802F881F8F57082F6894F7F818
:10072000802F87FF15C080958395082F80E38D93D8
:100730008EE28D93802F815228F080E38D9399274C
:100740009C93089544270A95802F09F196D01FC0E5
:10075000805230F09EE49D9381E48D939D93EFCF82
:100760004427DF92EF92FF920F938FE1801B11F0ED
:10077000082F83D089D09EE29D930F91FF90EF9038
:10078000DF9044270395003209F4D7CF2BD03F9355
:10079000EAE1F8E038E12F2D1E2D0D2DFF24EE2487
:1007A000DD244427000F111F221FA8F42F923F922F
:1007B0000E94AD04102C0E94AD04202C0E94AD04B8
:1007C000302C0E94AD043197410DD21CE31CF01C6B
:1007D0003F902F9001C0339631963A9519F73F918B
:1007E00007D0AFCFDD0CEE1CFF1C0A95D9F708959A
:1007F000002719E058D08F93802B11F0039501C08A
:100800008F911A95B9F7802F882309F496CF8F918D
:10081000805D8D930A95D9F792CF0065CD1D80B28A
:10082000E60E40597307A0ACB90350D6DC01286B23
:10083000EE0094357700CA9A3B0065CD1D00B2E604
:100840000E0059730700ACB90300D6DC01006BEE53
:100850000000357700009A3B0000CD1D0000E60E39
:10086000000073070000B9030000DC010000EE0087
:100870000000770000003B000000F694E794D79456
:1008800047950A95D1F7089500270DD08F930395CA
:100890008F2D8E298D29842BC1F78F91805D8D93AB
:1008A0000A95D9F74CCF1F930F93002710E2440FFE
:1008B000DD1CEE1CFF1C001F802F9AE0890B10F03E
:1008C000082F43951A9599F7802F0F911F9108953E
:1008D0000191119121913081089599275A924A925C
:1008E000480E591E0895369A3699FECF369A369993
:1008F000FECF84B195B10895899101C08827002762
:100900001C90011539F0803031F01D90011511F067
:100910000197D9F708951197AD011196BF01E89499
:10092000203019F0C895802D01C08081882389F07E
:100930009C91992389F0981731F40EF01D01689469
:1009400011963196EDCFFB010EF4D101E89411968A
:10095000E7CF16F48101041B0895C8953196002055
:10096000089591E0882321F08894991F8A95E9F7EA
:10097000892F90950895883018F011968850FBCFF4
:10098000089580E30EF4839508957F930F93AF93BA
:10099000BF938F939F938FB78F93E89480918B0031
:1009A00009E2081B21F49CB10E94440313C000918A
:1009B0008A00A0E6B0E077279CB1A00FB71F9C93F8
:1009C0006894839580938B000395093209F400277E
:1009D00000938A009D3011F40E94B7018F918FBF60
:1009E0009F918F91BF91AF910F917F9118956FB7A4
:1009F000F894882793E08D939A95E9F76FBF08954F
:100A000099278D9193958823E1F7939511968C936F
:100A100011978E919A95D1F70895EA2FFB2F002414
:100A20004C918D9103948E32E1F711248D911394A2
:100A30008823E1F71A94101640F41197202F2119FA
:100A4000239580E38D932A95E9F7113039F599279D
:100A5000AE2FBF2FA00DB91FA00FB91F8C919C9373
:100A6000853308F421C031E08E918E32E9F38D3266
:100A700041F0830F8A3319F480E331E001C033275A
:100A80008C93AE1789F7332341F0AE2FBF2FB8DF19
:100A900081E34D3209F43196808308958827E00D73
:100AA000F81FE00FF81F80830895040F151F261FFD
:100AB000371F0895000F111F221F331F089500953F
:100AC0001095209530950F5F1F4F2F4F3F4F089582
:100AD000019110810FC00E9468040EC00E9468043A
:100AE00010C00191108117FF05C03FEF2FEF04C028
:100AF000008111272227332737FF03C0E0DF8DE273
:100B00008D93CF92DF92EF92AA24BB24CC24DD24D4
:100B1000EE2440E2EAE0FF2755E093E38081890F6D
:100B200087FD9F7083FD907F891B81935A95A9F75C
:100B3000C1DFAA1CBB1CCC1CDD1CEE1C4A9551F766
:100B4000E894EFE0FF2782910BD0EB30E0F71EF046
:100B500068948A2D09D04D93EF90DF90CF9008953F
:100B6000982F829501D0892F8F70805D26F0803379
:100B700009F4089568948D9308950027112722277A
:100B800033271DD08A3328F4803318F005D015D0D0
:100B9000F9CF0EF494CF089580538F93402F512FA7
:100BA000622F732F87DF86DF80DF84DF8F919927A5
:100BB000080F191F291F391F08958D910895E89472
:100BC000FCDF8032E9F38B32D9F38930C9F38D32FF
:100BD00011F46894F2CF089541E0E40F8827F81FDC
:100BE000829138E098E1880F991F9D933A95D1F74B
:100BF0004A95B1F70C94FC0588278D93089581914F
:100C00008D938823E1F7089594E081918D939A95CF
:100C1000E1F7089581918032E9F3F2CFF0DF119787
:100C20008E918032E9F31196E7CFF4DFF8CF099186
:100C30009191992359F08A95D9F73197002331F092
:100C400081918D930A958823C9F70895D5CF803077
:100C500039F099270D91002319F00197D9F77E9368
:100C60000895E199FECFEEBBFFBB3196089591E068
:100C700001C092E07B3751F47FB7F894F2DF8D9199
:100C80008DBBE29AE19A9A95C9F77FBF77270895BD
:100C900091E001C092E0E5DFE09A8DB38D939A95E3
:100CA000D1F708958FEF83959D919923E1F70895EA
:100CB000689401C0E894AF93BF938D9116F0919121
:100CC00003C00E94AD04902D891718F011F48823F9
:100CD000A1F7BF91AF910895B7FE089590E8B916B6
:100CE00011F4D0FE08959FEFD91AE90AF90A09F420
:100CF00003950895D190E190F1900191089521918B
:100D00003191419151910895502F2D2D3E2D4F2D10
:100D1000612F0895652F90E8440F551F5927990FAB
:100D200047956078102F90E8FF0C001F0927990F56
:100D3000F794107800380895FF0C90E89027110F71
:100D40009795F794092F08951127BD2CDE2CEF2CD1
:100D5000F02E0EE1FF2039F4FE2CED2CDB2CBB2411
:100D60000850C2F752C032F00A95BB0CDD1CEE1CD5
:100D7000FF1CF9CFB1DFE0CF2DEC3CEC4CEC5DE398
:100D800066270FC0B7DFC0DFDD24EE2490E8F92E20
:100D90000FE307C0B4DF05C02227332740E251E448
:100DA0006627552351F1002381F1B4DF71F1162735
:100DB000005850580894050B18F407FD03C025C0CF
:100DC00007FD23C0469537952795F694E794D79469
:100DD00022D0FF202AF0DD0CEE1CFF1C015073F026
:100DE0009D2D969548F0DD203AF4EE202AF491E00E
:100DF000D90E9927E91EF91E9FCF07C09FE7092F3B
:100E0000F92A9FEFD92EE92E0895DD24EE24FF2440
:100E10000027112708959F929924AA24BB2488E1D2
:100E2000D216E306F40628F0D21AE30AF40A08946C
:100E300001C08894991CAA1CBB1CDD0CEE1CFF1C75
:100E40008A9571F7D92CEA2CFB2C9F9008950E946B
:100E5000AD04202D0E94AD04302D0E94AD04402D24
:100E60000E94AD04502D0895CDCC4C43736F69663C
:100E7000676F0000766F6C743A0074656D70313A7C
:100E8000000074656D70323A0000706F7274623ADF
:100E9000000070696E633A00666565646261636B49
:100EA0003A003A0072616E67000070776D31610040
:0A0EB000706F727400003000310012
:00000001FF
