:100000000C942A001895000018950000189500001F
:10001000189500001895000018950000189500002C
:100020001895000018950000189500000C94E30442
:10003000189500001895000018950000189500000C
:1000400018950000189500001895000018950000FC
:10005000189500008FE58DBFC8E3E0E24E2E84E0E6
:100060008EBFD4E0F4E05F2EA89584B7082E877F7A
:1000700084BF88E1992781BD91BDEEEFF3E0A0E652
:10008000B0E088278D933197E9F785E089B980E062
:1000900080BD88E18AB9662486E886B980E487B99C
:1000A0008D9A8C9A83EA8FBD81E08EBD8FEF87BBDE
:1000B00070E078BBA098A098A89AA198A198A99A56
:1000C0007894579A74B7777F74BF8FE197E081BDBA
:1000D00091BD81B5886081BDE1E0F0E0A8E3B0E0CA
:1000E00091E00E945F0681E090E00E949A03E3E0C5
:1000F000F0E0A8ECB0E092E00E945F0681E090E0C2
:100100000E949A038E9A969AEAEBFEE00E94870379
:100110000E948E03A8ECB0E08D919C919BBD8ABD9E
:1001200084E690E00E949A03A4EDB0E08C918F5F8A
:100130008C93A8950091D400063018F011F00C941F
:10014000A3000C94A60081E08093D4000091D40019
:10015000013011F00C94FC0007B1007E07B90E9439
:100160009104AAECB0E08D939C93E6EBFEE00E9434
:100170004E07EAECF0E0D190E080FF2400270E94D7
:10018000CB060E94F806EDE0F0E0A0EDB0E00E94A2
:100190002206E0EDF0E00E94A106ECECF0E00E9407
:1001A000A6060E94880611F40C94FA00E2ECFEE028
:1001B0000E945703A8E0B4E0AF93BF93E0EDF0E0F6
:1001C0000E94A1060E94A90311E002E0BF91AF9135
:1001D0000E942B05E8E0F4E0A8E0B4E00E941D06D0
:1001E0000E944F030E945E03E0EDF0E0ACECB0E053
:1001F0000E9422060C94CA01023011F00C943301C3
:1002000007B1007E016007B90E949104A2ECB0E042
:100210008D939C93A0ECB0E04D915C91A2ECB0E08A
:100220000D911C910417150711F40C943101E8ECA1
:10023000FEE00E945703EEECFEE00E945703E2EC62
:10024000F0E0A8E0B4E00E9486050E944F030E94FF
:100250005E03A2ECB0E08D919C91A0ECB0E08D9398
:100260009C930C94CA01033011F00C946A0107B1FD
:10027000007E026007B90E949104A6ECB0E08D9365
:100280009C93A4ECB0E04D915C91A6ECB0E00D9194
:100290001C910417150711F40C946801E0EDFEE0C1
:1002A0000E945703EEECFEE00E945703E6ECF0E0FC
:1002B000A8E0B4E00E9486050E944F030E945E03FE
:1002C000A6ECB0E08D919C91A4ECB0E08D939C9352
:1002D0000C94CA01043011F00C949201AAEDB0E024
:1002E00088B38C934091D9000091DA00041711F47F
:1002F0000C949001E6EDFEE00E945703EEECFEE068
:100300000E945703D201E8E3F0E00E940A06D201FE
:100310000E9451030E945E038091DA008093D9000D
:100320000C94CA01053011F00C94CA01ACEDB0E098
:1003300085B38C934091DB000091DC00041711F42D
:100340000C94CA01ECEDFEE00E945703EEECFEE0D7
:100350000E945703A3E3B0E08C9180FBA8E0B4E0D7
:100360000E94DF048D9388278C930E944F03A3E3A0
:10037000B0E08C9181FBA8E0B4E00E94DF048D9393
:1003800088278C930E944F030E945E038091DC00BB
:100390008093DB000C94900084E190E00E949A032B
:1003A000ACE8B0E0E8E20E941803ACE8B0E08C9161
:1003B000803011F40C94DE010E94DF010895A895AD
:1003C000ECE8F0E0ACE8B0E00E943306ECE8F0E0E6
:1003D000ACE8B0E00E942806ACE8B0E0E2EEFEE057
:1003E0002FEF0E949C04003018F011F00C94FA01D9
:1003F0000C940902F89486E0ECE8F0E004E20A9339
:10040000A8E0B4E00E9435060E9492030E948E0389
:100410007894ACE8B0E0E8EEFEE02FEF0E949C0498
:10042000003018F011F00C9417020C94320287E09F
:10043000ECE8F0E004E00A93AAEBB0E00E94350695
:10044000AAEBB0E00E94DB05802F912F90934B0028
:1004500080934A00E3E0F0E0AAE4B0E092E07BE7BA
:100460000E944E06ACE8B0E0EEEEFEE02FEF0E94F8
:100470009C04003018F011F00C9440020C94FD0222
:1004800087E0ECE8F0E001E00A93A5EBB0E00E9421
:10049000350685E0ECE8F0E001E00A93ACE8B0E076
:1004A0000E943506A5EBB0E0E4EFFEE00E94660690
:1004B00011F00C9460027091D8007F777093D8008F
:1004C000A5EBB0E0E6EFFEE00E94660611F00C94AA
:1004D0006E027091D80070687093D800ACE8B0E0FC
:1004E0000E94DB05A6EDB0E00C930091D600083029
:1004F00010F00C948D02A8EDB0E08C9187FB8091F8
:10050000D600A8E3B0E00E94D9040E94CF040C906A
:1005100016F0092201C0082A0C920091D600093079
:1005200011F00C94F502A8EDB0E08C9187FB16F069
:100530000C94C4027FEF78BB80E08093D5000091DB
:10054000D500073018F011F00C94C402E8EFFEE07B
:100550000E945703E5EDF0E0A8E0B4E00E949605A4
:100560000E944F03EEEFFEE00E9457030E945E03DD
:1005700082E390E00E949A03A5EDB0E08C918F5F3A
:100580008C9310F40C949F02A8EDB0E08C9187FB43
:1005900016F40C94F50270E078BB80E08093D500EF
:1005A0000091D500073018F011F00C94F502E8EF37
:1005B000FEE00E945703E5EDF0E0A8E0B4E00E9401
:1005C00096050E944F03E2E0FFE00E9457030E945D
:1005D0005E0382E390E00E949A03A5EDB0E08C9167
:1005E0008F5F8C9310F40C94D002E1E0F0E0A8E36C
:1005F000B0E091E07BE70E944E06ACE8B0E08827CF
:100600008C93A5EBB0E088278C93AAEBB0E0882709
:100610008C938EED8093D6007091D8007F77709385
:10062000D800A9E8B0E00E9415050895A8E0B4E05C
:1006300012D08D3039F0EE23D9F38D93EA9563FE15
:1006400040D0F6CF63FC04C08DE03BD08AE039D0C7
:1006500088278C9308950F929F93AF93BF937F93B6
:1006600080918B008823E1F3F89480918B008A9528
:1006700080938B0090918900A0E6B0E0A90F002440
:10068000B01D8C919395993209F499279093890024
:1006900078947F91BF91AF919F910F900895A8E0BA
:1006A000B4E08D91882311F00CD0FBCF08950E9407
:1006B000CB04802D11F005D0FACF08958DE001D044
:1006C0008AE05D9BFECF8CB908953197F1F70895CC
:1006D000689462F80895E89462F808958F939F9360
:1006E0008BE890E00197F1F79F918F9108958095A5
:1006F0002AE090E0089410F4969802C0969A0000C0
:10070000EDDFECDF969587952A95A9F708950E946D
:10071000CB04802D11F0EBDFFACF08958DE0E7DFF9
:100720008AE0E5CFA8E0B4E08D91882311F0DFDF07
:10073000FBCF0895EF93FF93EE27E82BE92B31F0E1
:10074000EDECFAE03197F1F70197D1F7FF91EF91D6
:1007500008958DE207FD8D938F2D881F802F881FB0
:100760008F57082F6894F7F8802F87FF15C0809562
:100770008395082F80E38D938EE28D93802F815295
:1007800028F080E38D9399279C93089544270A9538
:10079000802F09F196D01FC0805230F09EE49D93C7
:1007A00081E48D939D93EFCF4427DF92EF92FF92E8
:1007B0000F938FE1801B11F0082F83D089D09EE228
:1007C0009D930F91FF90EF90DF90442703950032A7
:1007D00009F4D7CF2BD03F93E2E6F8E038E12F2D94
:1007E0001E2D0D2DFF24EE24DD244427000F111FA4
:1007F000221FA8F42F923F920E94CB04102C0E943B
:10080000CB04202C0E94CB04302C0E94CB043197C7
:10081000410DD21CE31CF01C3F902F9001C0339679
:1008200031963A9519F73F9107D0AFCFDD0CEE1C0A
:10083000FF1C0A95D9F70895002719E058D08F9327
:10084000802B11F0039501C08F911A95B9F7802F75
:10085000882309F496CF8F91805D8D930A95D9F7FF
:1008600092CF0065CD1D80B2E60E40597307A0AC53
:10087000B90350D6DC01286BEE0094357700CA9A94
:100880003B0065CD1D00B2E60E0059730700ACB900
:100890000300D6DC01006BEE0000357700009A3BC8
:1008A0000000CD1D0000E60E000073070000B90334
:1008B0000000DC010000EE000000770000003B00BB
:1008C0000000F694E794D79447950A95D1F70895D8
:1008D00000270DD08F9303958F2D8E298D29842B82
:1008E000C1F78F91805D8D930A95D9F74CCF1F93F7
:1008F0000F93002710E2440FDD1CEE1CFF1C001FAD
:10090000802F9AE0890B10F0082F43951A9599F7DC
:10091000802F0F911F9108950191119121913081A4
:100920000895369A3699FECF369A3699FECF84B11D
:1009300095B10895899101C0882700271C90011561
:1009400039F0803031F01D90011511F00197D9F781
:1009500008951197AD011196BF01E894203019F068
:10096000C895802D01C08081882389F09C919923AE
:1009700089F0981731F40EF01D01689411963196A4
:10098000EDCFFB010EF4D101E8941196E7CF16F4F8
:100990008101041B0895C89531960020089591E0C7
:1009A000882321F08894991F8A95E9F7892F9095DB
:1009B0000895883018F011968850FBCF089580E391
:1009C0000EF4839508957F930F93AF93BF938F9306
:1009D0009F938FB78F93E89480918B0009E2081B57
:1009E00021F49CB10E94680313C000918A00A0E624
:1009F000B0E077279CB1A00FB71F9C9368948395B4
:100A000080938B000395093209F4002700938A0034
:100A10009D3011F40E94CC018F918FBF9F918F91D7
:100A2000BF91AF910F917F9118956FB7F894882778
:100A300093E08D939A95E9F76FBF089599278D916B
:100A400093958823E1F7939511968C9311978E9146
:100A50009A95D1F70895EA2FFB2F00244C918D91A0
:100A600003948E32E1F711248D9113948823E1F7DA
:100A70001A94101640F41197202F2119239580E322
:100A80008D932A95E9F7113039F59927AE2FBF2FAD
:100A9000A00DB91FA00FB91F8C919C93853308F44A
:100AA00021C031E08E918E32E9F38D3241F0830F17
:100AB0008A3319F480E331E001C033278C93AE17F9
:100AC00089F7332341F0AE2FBF2FB8DF81E34D32DA
:100AD00009F43196808308958827E00DF81FE00F10
:100AE000F81F80830895040F151F261F371F0895D0
:100AF000000F111F221F331F089500951095209598
:100B000030950F5F1F4F2F4F3F4F08950191108178
:100B10000FC00E948C040EC00E948C0410C0019172
:100B2000108117FF05C03FEF2FEF04C00081112790
:100B30002227332737FF03C0E0DF8DE28D93CF926A
:100B4000DF92EF92AA24BB24CC24DD24EE2440E2E1
:100B5000EAE0FF2755E093E38081890F87FD9F70CE
:100B600083FD907F891B81935A95A9F7C1DFAA1C49
:100B7000BB1CCC1CDD1CEE1C4A9551F7E894EFE041
:100B8000FF2782910BD0EB30E0F71EF068948A2D9E
:100B900009D04D93EF90DF90CF900895982F8295D4
:100BA00001D0892F8F70805D26F0803309F408957D
:100BB00068948D93089500271127222733271DD08D
:100BC0008A3328F4803318F005D015D0F9CF0EF40D
:100BD00094CF089580538F93402F512F622F732FFE
:100BE00087DF86DF80DF84DF8F919927080F191F49
:100BF000291F391F08958D910895E894FCDF8032F4
:100C0000E9F38B32D9F38930C9F38D3211F468944A
:100C1000F2CF089541E0E40F8827F81F829138E071
:100C200098E1880F991F9D933A95D1F74A95B1F7AE
:100C30000C941A0688278D93089581918D938823AB
:100C4000E1F7089594E081918D939A95E1F70895E5
:100C500081918032E9F3F2CFF0DF11978E918032EB
:100C6000E9F31196E7CFF4DFF8CF09919191992339
:100C700059F08A95D9F73197002331F081918D93FE
:100C80000A958823C9F70895D5CFE199FECFEEBB29
:100C9000FFBB3196089591E001C092E07B3751F49B
:100CA0007FB7F894F2DF8D918DBBE29AE19A9A9525
:100CB000C9F77FBF7727089591E001C092E0E5DF93
:100CC000E09A8DB38D939A95D1F70895689401C0F9
:100CD000E894AF93BF938D9116F0919103C00E9459
:100CE000CB04902D891718F011F48823A1F7BF9138
:100CF000AF910895B7FE089590E8B91611F4D0FEAB
:100D000008959FEFD91AE90AF90A09F4039508959D
:100D10000F928F939F93D216E306F4060FB680E8E6
:100D200090E8802795270FBE890739F00FB6892BE9
:100D300087FD02C081E008260FBE9F918F910F9022
:100D40000895D190E190F190019108952191319110
:100D5000419151910895502F2D2D3E2D4F2D612FF2
:100D60000895652F90E8440F551F5927990F47950F
:100D70006078102F90E8FF0C001F0927990FF79457
:100D8000107800380895FF0C90E89027110F979580
:100D9000F794092F08951127BD2CDE2CEF2CF02E8F
:100DA0000EE1FF2039F4FE2CED2CDB2CBB24085087
:100DB000C2F752C032F00A95BB0CDD1CEE1CFF1CC2
:100DC000F9CF98DFE0CF2DEC3CEC4CEC5DE36627EF
:100DD0000FC0B7DFC0DFDD24EE2490E8F92E0FE36B
:100DE00007C0B4DF05C02227332740E251E466275D
:100DF000552351F1002381F1B4DF71F1162700581A
:100E000050580894050B18F407FD03C025C007FDD2
:100E100023C0469537952795F694E794D79422D02A
:100E2000FF202AF0DD0CEE1CFF1C015073F09D2DFD
:100E3000969548F0DD203AF4EE202AF491E0D90EA0
:100E40009927E91EF91E9FCF07C09FE7092FF92AAE
:100E50009FEFD92EE92E0895DD24EE24FF240027EC
:100E6000112708959F929924AA24BB2488E1D216C1
:100E7000E306F40628F0D21AE30AF40A089401C043
:100E80008894991CAA1CBB1CDD0CEE1CFF1C8A95C7
:100E900071F7D92CEA2CFB2C9F9008950E94CB046B
:100EA000202D0E94CB04302D0E94CB04402D0E94A7
:100EB000CB04502D0895CDCC4C43736F6966676F9A
:100EC0000000766F6C743A0074656D7031003A0002
:100ED00074656D703200706F7274620070696E6359
:100EE000000072616E67000070776D316100706F95
:100EF000727400003000310023706F7274003A3158
:060F00002A003A302A002D
:00000001FF
